:020000040000FA
:10000000000002288316FF3085000030860087003C
:1000100088000317880189018312031300308500CB
:100020008601870117288501860187018801051847
:100030001E281B28172885182728212885182A28D4
:100040002428013088002D28023088005B280430E5
:1000500088008D2808308800BB28A301562023087B
:100060003C208600230847208700ED20A30A0C309F
:100070002306031D2E282D288207333430340C34F8
:10008000FC34CF34E334CF34CF343334F334820709
:10009000A034203400344434113418341134003482
:1000A0001134113486018701880117280518522858
:1000B000851852280800A401882024086A20860098
:1000C000240877208700ED20A40A0C302406031DA5
:1000D0005C285B288207333430340C34CC34CC3485
:1000E000F1343F34CC34CF34E334FC34F33482077E
:1000F000A0342034003444342234013400344434F5
:1001000011341834443411348601870188011728CA
:10011000051C8428851884280800A501B620250818
:100120009C2086002508A7208700ED20A50A0A301C
:100130002506031D8E288D2882073334EE340C34B7
:10014000FC34CF34E334CF34CF343334F334820748
:10015000A0341134003444341134183411340034D0
:100160001134113486018701880117280518B22837
:10017000851CB2280800A601E8202608CA208600AF
:100180002608D7208700ED20A60A0C302606031D7E
:10019000BC28BB2882073334EE340C34CC34CC3446
:1001A000F1343F34CC34CF34E334FC34F3348207BD
:1001B000A034113400344434223401340034443443
:1001C000113418344434113486018701880117280A
:1001D000051CE428851CE42808000330A2006430D4
:1001E000A1007830A000A00BF328A10BF328A20BEC
:0601F000F32800340800B2
:02400E00E428A4
:02401000FF3E71
:00000001FF
