:020000040000FA
:020000000528D1
:080008001F28030183160030DC
:100010008600F0308500831285018601A715A03087
:100020008B008316823081008312A501A60158201F
:10003000A60A2608193C031D1728A6011728A300A5
:10004000030EA4002508043C031D2928A501A701CF
:10005000A715250826073B20A800280986002708A1
:10006000A90029098500A50AA70C240E8300A30E68
:10007000230E0B1109008207FF348934C034C734C2
:100080008834FF341134C034FF349234C034113416
:10009000FF34E1348834F934CE34FF348C3488347E
:1000A000C734C0349234FF34CF34C634C034FF3444
:1000B0000430A0009B30A100CF30A200A20B5E282C
:0A00C000A10B5C28A00B5A280800D1
:02400E00E428A4
:02401000FF3E71
:00000001FF
