:020000040000FA
:10000000000002288316FF3085000030860087003C
:1000100003178801890183120313003085008601CC
:10002000870116288501860187018801FF30860037
:10003000003087001C281628A30123082A208600E8
:100040002308412087005B20A30A16302306031DE6
:100050001D281C288207C3340C3433341C34FF346D
:100060000C34CC343F340034CC3433340034FF34DB
:100070001C340C34F03400342234FF34CC343034AB
:1000800033348207FF34E734BD3467340034E73457
:100090007E34BD34FF347E34BD34FF340034E73465
:1000A000E734FF34FF34E7340034E734E734DB343B
:1000B0008601870116280330A2000830A10076309F
:1000C000A000A00B6128A10B6128A20B61280034BD
:0200D000080026
:02400E00E428A4
:02401000FF3E71
:00000001FF
