:020000040000FA
:020000000528D1
:080008003D28030183160030BE
:100010008600F03085008312850186012614A03009
:100020008B008316843081008312A5010030B0005C
:100030000030B1000030B2000030B3006220B00ADE
:1000400030080A3C031D1E282528B001B10A3108DA
:10005000063C031D1E282C28B001B101B20A32084B
:100060000A3C031D1E283428B001B101B201B30AB5
:100070003308063C031D1E281628A300030EA40007
:100080002508043C031D4728A501A60126142508C0
:10009000303E840000085720860026098500A50A06
:1000A000A60D240E8300A30E230E0B110900820758
:1000B0003F3406345B344F3466346D347D3407345A
:1000C0007F3467340A30A0009B30A1003230A20098
:0E00D000A20B6828A10B6628A00B642808006C
:02400E00E428A4
:02401000FF3E71
:00000001FF
