:020000040000FA
:10000000000002288316FF3085000030860088003B
:1000100087000317880089008312031303108500EB
:100020008600880087000301A00101308700051CBD
:100030001A281D28851C2028342885185C28482863
:1000400005181428851814280130870020089020EE
:100050008600200898208800B020A00A07302006DB
:10006000031D26281428202805181428851C142868
:10007000043087002008A02086002008A8208800DF
:10008000B020A00A07302006031D3A28142834287F
:10009000051C1428851814280230870020087020B9
:1000A0008600200878208800B020A00A07302006AB
:1000B000031D4E2814284828051C1428851C1428C4
:1000C00008308700200880208600200888208800CB
:1000D000B020A00A07302006031D622814285C28DF
:1000E0008207CC340C34003433343334FF340034DE
:1000F000820705340434883422344434103488347C
:100100008207CC347734003433343334FF34003452
:1001100082070534883488342234443410348834D7
:100120008207CC340C3400343F34F334C734003409
:100130008207053404348834223480349834883477
:100140008207CC34773400343F34F334C73400347E
:1001500082070534883488342234803498348834D3
:100160000F30A100A10BB52808006430A200A20B3B
:10017000BA28B2286430A300A30BBC28B7281428DF
:02400E00E428A4
:02401000FF3E71
:00000001FF
