:020000040000FA
:10000000000002288316FF3085000030860086013C
:100010008801870103178800890083120313850173
:1000200086018801870103010310A3016C280130B8
:10003000870023087720860023087D208800A720DA
:10004000A30A053023068518142800000518142873
:100050000000031D1728142802308700230883207E
:100060008600230889208800A720A30A05302306DC
:1000700085186C280000051C14280000031D2C287E
:1000800014280430870023088F2086002308952039
:100090008800A720A30A05302306851C1428000029
:1000A000051814280000031D412814280830870073
:1000B00023089B2086002308A1208800A720A30AEC
:1000C00005302306851C14280000051C1428000098
:1000D000031D56281428A301851C742800008518C8
:1000E0007128051C41285628051C17282C28820732
:1000F00033343034FC34CF34E3348207A03420343A
:10010000443401341934820733343034CC34CC34A1
:10011000FF348207A0342034443422340834820768
:100120003334EE34FC34CF34E3348207A03411345A
:1001300044340134193482073334EE34CC34CC34B3
:10014000FF348207A03411344434223408340F3091
:10015000A000A00BAC2808002D30A100A10BB128F5
:0C016000A928FB30A200A20BB328AE2897
:02400E00E428A4
:02401000FF3E71
:00000001FF
