:020000040000FA
:10000000000002288316FF308500003086000317A9
:100010008801890183120313850186010310850875
:1000200001308600851C15281828051C1B2824284B
:10003000051C36283F288518182805182D28860DF8
:100040005D20061C1B280E2885181828051C1B2857
:10005000860D5D20861F24282D2885181828051C4C
:100060001B28860C5D20061C2D280E28851C1528B3
:1000700005183F28860C5D20061C36280E285920BE
:10008000813086005D205920423086005D20592055
:10009000243086005D205920183086005D205920CC
:1000A000243086005D205920423086005D20592092
:1000B0003F28851C0E28051C0E280530A000503056
:1000C000A1006430A20000000000A20B6328A10B75
:0800D0006128A00B5F28080065
:02400E00E428A4
:02401000FF3E71
:00000001FF
