:020000040000FA
:10000000000002288316FF30FF3085000030860094
:1000100003178801890183120313850186010301F7
:100020000F30A400051CA4010000051C182823287B
:10003000051823282F2005182328A40A1030240689
:10004000031D18281028051C18282F20051C182807
:10005000A40300302406031D23282F201028240881
:100060003420860045200800820740347934243447
:1000700030341934123402347834003410340834F3
:1000800003344634213406340E340F30A000A00B64
:100090004A2808002D30A100A10B4F284728FB302B
:0800A000A200A20B51284C281C
:0400A80000340034EC
:02400E00E428A4
:02401000FF3E71
:00000001FF
