:020000040000FA
:1000000001288316031385018601831603178801CF
:1000100089018312031385018601383049200C3091
:10002000492001304920A30155208F302307492062
:10003000230829204C20CF302307492023083920CA
:100040004C2018304920A30A0F302306031D142822
:100050001328820750347234613463347434693441
:100060006334613420346434653420344C34433494
:10007000443482074A346134693472342034503451
:100080006534723464346F346E3420343A34283436
:100090002034051085104F28051485104F28860040
:1000A0000515592005115920080035305A281530FA
:1000B0005A280830A200A100A000A00B5D28A10BC7
:0800C0005C28A20B5B2808007C
:02400E00E428A4
:02401000FF3E71
:00000001FF
