:1000000000308A00292800000A108A100A1182078D
:1000100008340C3404340634023403340134093413
:100020000A108A100A118207093401340334023499
:10003000063404340C34083422308400831300085E
:10004000031928285230F700F70B2428800B2228A8
:10005000080003081F398300FF30A100831603172F
:100060000908C039890003131F129F1200300317BB
:10007000880083128701880189018313FF3083166A
:10008000031387008312A1000030831686008312B9
:10009000071C5B28A0012008073C031C5A28071CEA
:1000A0005A2820080420F80086003230A2001C20C4
:1000B000A00A4B286B28A0012008073C031C6B28D2
:1000C00007186B2820081020F80086003230A200A4
:0A00D0001C20A00A5C2848286300E9
:04400E00E12CFF3F63
:00000001FF
;PIC16F887
;CRC=860D  CREATED="18-mar.-22 19:55"
