:020000040000FA
:1000000001288316031385018601831603178801CF
:1000100089018312031385018601383055200C3085
:10002000552001305520A30161208F302307552032
:10003000230829205820CF302307552023083F20AC
:10004000582018305520A30A15302306031D142804
:10005000132882075434653420346534783474347A
:1000600072346134F1346F3420346D347534633458
:1000700068346F34203461346D346F3472348207E5
:1000800054346534203471347534693465347234D1
:100090006F3420346D3475346334683469347334A8
:1000A00069346D346F3420342034051085105B289A
:1000B000051485105B28860005156520051165204F
:1000C000080035306628153066280830A200A100E7
:1000D000A000A00B6928A10B6828A20B67280800C4
:02400E00E428A4
:02401000FF3E71
:00000001FF
